{
  "contractName": "Block",
  "abi": [
    {
      "inputs": [],
      "stateMutability": "nonpayable",
      "type": "constructor"
    },
    {
      "inputs": [
        {
          "internalType": "uint256",
          "name": "",
          "type": "uint256"
        }
      ],
      "name": "tasks",
      "outputs": [
        {
          "internalType": "uint256",
          "name": "id",
          "type": "uint256"
        },
        {
          "internalType": "string",
          "name": "description",
          "type": "string"
        },
        {
          "internalType": "bool",
          "name": "done",
          "type": "bool"
        }
      ],
      "stateMutability": "view",
      "type": "function"
    },
    {
      "inputs": [
        {
          "internalType": "string",
          "name": "_description",
          "type": "string"
        }
      ],
      "name": "addTask",
      "outputs": [],
      "stateMutability": "nonpayable",
      "type": "function"
    },
    {
      "inputs": [
        {
          "internalType": "uint256",
          "name": "_id",
          "type": "uint256"
        }
      ],
      "name": "doneTask",
      "outputs": [],
      "stateMutability": "nonpayable",
      "type": "function"
    },
    {
      "inputs": [],
      "name": "getTasks",
      "outputs": [
        {
          "components": [
            {
              "internalType": "uint256",
              "name": "id",
              "type": "uint256"
            },
            {
              "internalType": "string",
              "name": "description",
              "type": "string"
            },
            {
              "internalType": "bool",
              "name": "done",
              "type": "bool"
            }
          ],
          "internalType": "struct Block.task[]",
          "name": "",
          "type": "tuple[]"
        }
      ],
      "stateMutability": "view",
      "type": "function"
    },
    {
      "inputs": [],
      "name": "getLength",
      "outputs": [
        {
          "internalType": "uint256",
          "name": "",
          "type": "uint256"
        }
      ],
      "stateMutability": "view",
      "type": "function"
    },
    {
      "inputs": [
        {
          "internalType": "uint256",
          "name": "_id",
          "type": "uint256"
        }
      ],
      "name": "getTask",
      "outputs": [
        {
          "components": [
            {
              "internalType": "uint256",
              "name": "id",
              "type": "uint256"
            },
            {
              "internalType": "string",
              "name": "description",
              "type": "string"
            },
            {
              "internalType": "bool",
              "name": "done",
              "type": "bool"
            }
          ],
          "internalType": "struct Block.task",
          "name": "",
          "type": "tuple"
        }
      ],
      "stateMutability": "view",
      "type": "function"
    }
  ],
  "bytecode": "0x60806040523480156200001157600080fd5b5060006040518060600160405280600181526020016040518060400160405280600681526020017f7461736b203100000000000000000000000000000000000000000000000000008152508152602001600015158152509080600181540180825580915050600190039060005260206000209060030201600090919091909150600082015181600001556020820151816001019080519060200190620000b9929190620001ac565b5060408201518160020160006101000a81548160ff021916908315150217905550505060006040518060600160405280600281526020016040518060400160405280600681526020017f7461736b20320000000000000000000000000000000000000000000000000000815250815260200160001515815250908060018154018082558091505060019003906000526020600020906003020160009091909190915060008201518160000155602082015181600101908051906020019062000183929190620001ac565b5060408201518160020160006101000a81548160ff0219169083151502179055505050620002c1565b828054620001ba906200028b565b90600052602060002090601f016020900481019282620001de57600085556200022a565b82601f10620001f957805160ff19168380011785556200022a565b828001600101855582156200022a579182015b82811115620002295782518255916020019190600101906200020c565b5b5090506200023991906200023d565b5090565b5b80821115620002585760008160009055506001016200023e565b5090565b7f4e487b7100000000000000000000000000000000000000000000000000000000600052602260045260246000fd5b60006002820490506001821680620002a457607f821691505b60208210811415620002bb57620002ba6200025c565b5b50919050565b610c3f80620002d16000396000f3fe608060405234801561001057600080fd5b50600436106100625760003560e01c806304a87e38146100675780631d65e77e146100855780635e6f8337146100b557806367238562146100d15780638d977672146100ed578063be1c766b1461011f575b600080fd5b61006f61013d565b60405161007c91906107b4565b60405180910390f35b61009f600480360381019061009a9190610816565b610253565b6040516100ac9190610893565b60405180910390f35b6100cf60048036038101906100ca9190610816565b610346565b005b6100eb60048036038101906100e691906109ea565b610387565b005b61010760048036038101906101029190610816565b610434565b60405161011693929190610a9b565b60405180910390f35b610127610503565b6040516101349190610ad9565b60405180910390f35b60606000805480602002602001604051908101604052809291908181526020016000905b8282101561024a57838290600052602060002090600302016040518060600160405290816000820154815260200160018201805461019e90610b23565b80601f01602080910402602001604051908101604052809291908181526020018280546101ca90610b23565b80156102175780601f106101ec57610100808354040283529160200191610217565b820191906000526020600020905b8154815290600101906020018083116101fa57829003601f168201915b505050505081526020016002820160009054906101000a900460ff16151515158152505081526020019060010190610161565b50505050905090565b61025b61050f565b6000828154811061026f5761026e610b55565b5b9060005260206000209060030201604051806060016040529081600082015481526020016001820180546102a290610b23565b80601f01602080910402602001604051908101604052809291908181526020018280546102ce90610b23565b801561031b5780601f106102f05761010080835404028352916020019161031b565b820191906000526020600020905b8154815290600101906020018083116102fe57829003601f168201915b505050505081526020016002820160009054906101000a900460ff1615151515815250509050919050565b60016000828154811061035c5761035b610b55565b5b906000526020600020906003020160020160006101000a81548160ff02191690831515021790555050565b6000600160008054905061039b9190610bb3565b90506000806040518060600160405280848152602001858152602001831515815250908060018154018082558091505060019003906000526020600020906003020160009091909190915060008201518160000155602082015181600101908051906020019061040c929190610532565b5060408201518160020160006101000a81548160ff0219169083151502179055505050505050565b6000818154811061044457600080fd5b906000526020600020906003020160009150905080600001549080600101805461046d90610b23565b80601f016020809104026020016040519081016040528092919081815260200182805461049990610b23565b80156104e65780601f106104bb576101008083540402835291602001916104e6565b820191906000526020600020905b8154815290600101906020018083116104c957829003601f168201915b5050505050908060020160009054906101000a900460ff16905083565b60008080549050905090565b604051806060016040528060008152602001606081526020016000151581525090565b82805461053e90610b23565b90600052602060002090601f01602090048101928261056057600085556105a7565b82601f1061057957805160ff19168380011785556105a7565b828001600101855582156105a7579182015b828111156105a657825182559160200191906001019061058b565b5b5090506105b491906105b8565b5090565b5b808211156105d15760008160009055506001016105b9565b5090565b600081519050919050565b600082825260208201905092915050565b6000819050602082019050919050565b6000819050919050565b61061481610601565b82525050565b600081519050919050565b600082825260208201905092915050565b60005b83811015610654578082015181840152602081019050610639565b83811115610663576000848401525b50505050565b6000601f19601f8301169050919050565b60006106858261061a565b61068f8185610625565b935061069f818560208601610636565b6106a881610669565b840191505092915050565b60008115159050919050565b6106c8816106b3565b82525050565b60006060830160008301516106e6600086018261060b565b50602083015184820360208601526106fe828261067a565b915050604083015161071360408601826106bf565b508091505092915050565b600061072a83836106ce565b905092915050565b6000602082019050919050565b600061074a826105d5565b61075481856105e0565b935083602082028501610766856105f1565b8060005b858110156107a25784840389528151610783858261071e565b945061078e83610732565b925060208a0199505060018101905061076a565b50829750879550505050505092915050565b600060208201905081810360008301526107ce818461073f565b905092915050565b6000604051905090565b600080fd5b600080fd5b6107f381610601565b81146107fe57600080fd5b50565b600081359050610810816107ea565b92915050565b60006020828403121561082c5761082b6107e0565b5b600061083a84828501610801565b91505092915050565b600060608301600083015161085b600086018261060b565b5060208301518482036020860152610873828261067a565b915050604083015161088860408601826106bf565b508091505092915050565b600060208201905081810360008301526108ad8184610843565b905092915050565b600080fd5b600080fd5b7f4e487b7100000000000000000000000000000000000000000000000000000000600052604160045260246000fd5b6108f782610669565b810181811067ffffffffffffffff82111715610916576109156108bf565b5b80604052505050565b60006109296107d6565b905061093582826108ee565b919050565b600067ffffffffffffffff821115610955576109546108bf565b5b61095e82610669565b9050602081019050919050565b82818337600083830152505050565b600061098d6109888461093a565b61091f565b9050828152602081018484840111156109a9576109a86108ba565b5b6109b484828561096b565b509392505050565b600082601f8301126109d1576109d06108b5565b5b81356109e184826020860161097a565b91505092915050565b600060208284031215610a00576109ff6107e0565b5b600082013567ffffffffffffffff811115610a1e57610a1d6107e5565b5b610a2a848285016109bc565b91505092915050565b610a3c81610601565b82525050565b600082825260208201905092915050565b6000610a5e8261061a565b610a688185610a42565b9350610a78818560208601610636565b610a8181610669565b840191505092915050565b610a95816106b3565b82525050565b6000606082019050610ab06000830186610a33565b8181036020830152610ac28185610a53565b9050610ad16040830184610a8c565b949350505050565b6000602082019050610aee6000830184610a33565b92915050565b7f4e487b7100000000000000000000000000000000000000000000000000000000600052602260045260246000fd5b60006002820490506001821680610b3b57607f821691505b60208210811415610b4f57610b4e610af4565b5b50919050565b7f4e487b7100000000000000000000000000000000000000000000000000000000600052603260045260246000fd5b7f4e487b7100000000000000000000000000000000000000000000000000000000600052601160045260246000fd5b6000610bbe82610601565b9150610bc983610601565b9250827fffffffffffffffffffffffffffffffffffffffffffffffffffffffffffffffff03821115610bfe57610bfd610b84565b5b82820190509291505056fea264697066735822122025785db3dad061d43ea41151989151c6bcd391e49f103a220cab6c355da5c5ed64736f6c634300080b0033",
  "immutableReferences": {},
  "source": "// SPDX-License-Identifier: MIT\r\npragma solidity >=0.4.22 <0.9.0;\r\n\r\ncontract Block {\r\n\r\n  struct task {\r\n    uint256 id;\r\n    string description;\r\n    bool done;\r\n  }\r\n\r\n  task[] public tasks;\r\n\r\n  constructor() {\r\n    tasks.push(task(1, 'task 1', false));\r\n    tasks.push(task(2, 'task 2', false));\r\n  }\r\n\r\n  function addTask(string memory _description) public {\r\n    uint256 id = tasks.length +1;\r\n    bool done = false;\r\n    tasks.push(task(id, _description, done));\r\n  }\r\n\r\n  function doneTask(uint256 _id) public {\r\n    tasks[_id].done = true;\r\n  }\r\n\r\n  function getTasks() public view returns (task[] memory) {\r\n    return tasks;\r\n  }\r\n\r\n  function getLength() public view returns (uint256) {\r\n    return tasks.length;\r\n  }\r\n\r\n  function getTask(uint256 _id) public view returns (task memory) {\r\n    return tasks[_id];\r\n  }\r\n}\r\n",
  "sourcePath": "C:\\Users\\Juan\\Desktop\\web3\\contracts\\Block.sol",
  "compiler": {
    "name": "solc",
    "version": "0.8.11+commit.d7f03943.Emscripten.clang"
  },
  "schemaVersion": "3.4.4",
  "updatedAt": "2022-01-25T21:10:24.150Z",
  "devdoc": {
    "kind": "dev",
    "methods": {},
    "version": 1
  },
  "userdoc": {
    "kind": "user",
    "methods": {},
    "version": 1
  }
}