{
  "contractName": "Block",
  "abi": [
    {
      "inputs": [],
      "stateMutability": "nonpayable",
      "type": "constructor"
    },
    {
      "inputs": [
        {
          "internalType": "uint256",
          "name": "",
          "type": "uint256"
        }
      ],
      "name": "tasks",
      "outputs": [
        {
          "internalType": "uint256",
          "name": "id",
          "type": "uint256"
        },
        {
          "internalType": "string",
          "name": "description",
          "type": "string"
        },
        {
          "internalType": "bool",
          "name": "done",
          "type": "bool"
        }
      ],
      "stateMutability": "view",
      "type": "function"
    },
    {
      "inputs": [
        {
          "internalType": "string",
          "name": "_description",
          "type": "string"
        }
      ],
      "name": "addTask",
      "outputs": [],
      "stateMutability": "nonpayable",
      "type": "function"
    },
    {
      "inputs": [
        {
          "internalType": "uint256",
          "name": "_id",
          "type": "uint256"
        }
      ],
      "name": "doneTask",
      "outputs": [],
      "stateMutability": "nonpayable",
      "type": "function"
    },
    {
      "inputs": [],
      "name": "getTasks",
      "outputs": [
        {
          "components": [
            {
              "internalType": "uint256",
              "name": "id",
              "type": "uint256"
            },
            {
              "internalType": "string",
              "name": "description",
              "type": "string"
            },
            {
              "internalType": "bool",
              "name": "done",
              "type": "bool"
            }
          ],
          "internalType": "struct Block.task[]",
          "name": "",
          "type": "tuple[]"
        }
      ],
      "stateMutability": "view",
      "type": "function"
    },
    {
      "inputs": [],
      "name": "getLength",
      "outputs": [
        {
          "internalType": "uint256",
          "name": "",
          "type": "uint256"
        }
      ],
      "stateMutability": "view",
      "type": "function"
    },
    {
      "inputs": [
        {
          "internalType": "uint256",
          "name": "_id",
          "type": "uint256"
        }
      ],
      "name": "getTask",
      "outputs": [
        {
          "components": [
            {
              "internalType": "uint256",
              "name": "id",
              "type": "uint256"
            },
            {
              "internalType": "string",
              "name": "description",
              "type": "string"
            },
            {
              "internalType": "bool",
              "name": "done",
              "type": "bool"
            }
          ],
          "internalType": "struct Block.task",
          "name": "",
          "type": "tuple"
        }
      ],
      "stateMutability": "view",
      "type": "function"
    }
  ],
  "bytecode": "0x60806040523480156200001157600080fd5b5060006040518060600160405280600081526020016040518060400160405280600681526020017f7461736b203100000000000000000000000000000000000000000000000000008152508152602001600015158152509080600181540180825580915050600190039060005260206000209060030201600090919091909150600082015181600001556020820151816001019080519060200190620000b9929190620001ac565b5060408201518160020160006101000a81548160ff021916908315150217905550505060006040518060600160405280600181526020016040518060400160405280600681526020017f7461736b20320000000000000000000000000000000000000000000000000000815250815260200160001515815250908060018154018082558091505060019003906000526020600020906003020160009091909190915060008201518160000155602082015181600101908051906020019062000183929190620001ac565b5060408201518160020160006101000a81548160ff0219169083151502179055505050620002c1565b828054620001ba906200028b565b90600052602060002090601f016020900481019282620001de57600085556200022a565b82601f10620001f957805160ff19168380011785556200022a565b828001600101855582156200022a579182015b82811115620002295782518255916020019190600101906200020c565b5b5090506200023991906200023d565b5090565b5b80821115620002585760008160009055506001016200023e565b5090565b7f4e487b7100000000000000000000000000000000000000000000000000000000600052602260045260246000fd5b60006002820490506001821680620002a457607f821691505b60208210811415620002bb57620002ba6200025c565b5b50919050565b610bad80620002d16000396000f3fe608060405234801561001057600080fd5b50600436106100625760003560e01c806304a87e38146100675780631d65e77e146100855780635e6f8337146100b557806367238562146100d15780638d977672146100ed578063be1c766b1461011f575b600080fd5b61006f61013d565b60405161007c91906107a7565b60405180910390f35b61009f600480360381019061009a9190610809565b610253565b6040516100ac9190610886565b60405180910390f35b6100cf60048036038101906100ca9190610809565b610346565b005b6100eb60048036038101906100e691906109dd565b610387565b005b61010760048036038101906101029190610809565b610427565b60405161011693929190610a8e565b60405180910390f35b6101276104f6565b6040516101349190610acc565b60405180910390f35b60606000805480602002602001604051908101604052809291908181526020016000905b8282101561024a57838290600052602060002090600302016040518060600160405290816000820154815260200160018201805461019e90610b16565b80601f01602080910402602001604051908101604052809291908181526020018280546101ca90610b16565b80156102175780601f106101ec57610100808354040283529160200191610217565b820191906000526020600020905b8154815290600101906020018083116101fa57829003601f168201915b505050505081526020016002820160009054906101000a900460ff16151515158152505081526020019060010190610161565b50505050905090565b61025b610502565b6000828154811061026f5761026e610b48565b5b9060005260206000209060030201604051806060016040529081600082015481526020016001820180546102a290610b16565b80601f01602080910402602001604051908101604052809291908181526020018280546102ce90610b16565b801561031b5780601f106102f05761010080835404028352916020019161031b565b820191906000526020600020905b8154815290600101906020018083116102fe57829003601f168201915b505050505081526020016002820160009054906101000a900460ff1615151515815250509050919050565b60016000828154811061035c5761035b610b48565b5b906000526020600020906003020160020160006101000a81548160ff02191690831515021790555050565b600080805490509050600080604051806060016040528084815260200185815260200183151581525090806001815401808255809150506001900390600052602060002090600302016000909190919091506000820151816000015560208201518160010190805190602001906103ff929190610525565b5060408201518160020160006101000a81548160ff0219169083151502179055505050505050565b6000818154811061043757600080fd5b906000526020600020906003020160009150905080600001549080600101805461046090610b16565b80601f016020809104026020016040519081016040528092919081815260200182805461048c90610b16565b80156104d95780601f106104ae576101008083540402835291602001916104d9565b820191906000526020600020905b8154815290600101906020018083116104bc57829003601f168201915b5050505050908060020160009054906101000a900460ff16905083565b60008080549050905090565b604051806060016040528060008152602001606081526020016000151581525090565b82805461053190610b16565b90600052602060002090601f016020900481019282610553576000855561059a565b82601f1061056c57805160ff191683800117855561059a565b8280016001018555821561059a579182015b8281111561059957825182559160200191906001019061057e565b5b5090506105a791906105ab565b5090565b5b808211156105c45760008160009055506001016105ac565b5090565b600081519050919050565b600082825260208201905092915050565b6000819050602082019050919050565b6000819050919050565b610607816105f4565b82525050565b600081519050919050565b600082825260208201905092915050565b60005b8381101561064757808201518184015260208101905061062c565b83811115610656576000848401525b50505050565b6000601f19601f8301169050919050565b60006106788261060d565b6106828185610618565b9350610692818560208601610629565b61069b8161065c565b840191505092915050565b60008115159050919050565b6106bb816106a6565b82525050565b60006060830160008301516106d960008601826105fe565b50602083015184820360208601526106f1828261066d565b915050604083015161070660408601826106b2565b508091505092915050565b600061071d83836106c1565b905092915050565b6000602082019050919050565b600061073d826105c8565b61074781856105d3565b935083602082028501610759856105e4565b8060005b8581101561079557848403895281516107768582610711565b945061078183610725565b925060208a0199505060018101905061075d565b50829750879550505050505092915050565b600060208201905081810360008301526107c18184610732565b905092915050565b6000604051905090565b600080fd5b600080fd5b6107e6816105f4565b81146107f157600080fd5b50565b600081359050610803816107dd565b92915050565b60006020828403121561081f5761081e6107d3565b5b600061082d848285016107f4565b91505092915050565b600060608301600083015161084e60008601826105fe565b5060208301518482036020860152610866828261066d565b915050604083015161087b60408601826106b2565b508091505092915050565b600060208201905081810360008301526108a08184610836565b905092915050565b600080fd5b600080fd5b7f4e487b7100000000000000000000000000000000000000000000000000000000600052604160045260246000fd5b6108ea8261065c565b810181811067ffffffffffffffff82111715610909576109086108b2565b5b80604052505050565b600061091c6107c9565b905061092882826108e1565b919050565b600067ffffffffffffffff821115610948576109476108b2565b5b6109518261065c565b9050602081019050919050565b82818337600083830152505050565b600061098061097b8461092d565b610912565b90508281526020810184848401111561099c5761099b6108ad565b5b6109a784828561095e565b509392505050565b600082601f8301126109c4576109c36108a8565b5b81356109d484826020860161096d565b91505092915050565b6000602082840312156109f3576109f26107d3565b5b600082013567ffffffffffffffff811115610a1157610a106107d8565b5b610a1d848285016109af565b91505092915050565b610a2f816105f4565b82525050565b600082825260208201905092915050565b6000610a518261060d565b610a5b8185610a35565b9350610a6b818560208601610629565b610a748161065c565b840191505092915050565b610a88816106a6565b82525050565b6000606082019050610aa36000830186610a26565b8181036020830152610ab58185610a46565b9050610ac46040830184610a7f565b949350505050565b6000602082019050610ae16000830184610a26565b92915050565b7f4e487b7100000000000000000000000000000000000000000000000000000000600052602260045260246000fd5b60006002820490506001821680610b2e57607f821691505b60208210811415610b4257610b41610ae7565b5b50919050565b7f4e487b7100000000000000000000000000000000000000000000000000000000600052603260045260246000fdfea2646970667358221220cee0879b49b211299f45d16d69f27575aca78bdb6a04366fd8a1e837c629c00664736f6c634300080b0033",
  "immutableReferences": {},
  "source": "// SPDX-License-Identifier: MIT\r\npragma solidity >=0.4.22 <0.9.0;\r\n\r\ncontract Block {\r\n  \r\n  struct task{\r\n      uint id;\r\n      string description;\r\n      bool done;\r\n  }\r\n  task[] public tasks;\r\n\r\n  constructor(){\r\n    tasks.push(task(0, \"task 1\", false));\r\n    tasks.push(task(1, \"task 2\", false));\r\n  }\r\n\r\n  function addTask(string memory _description) public {\r\n    uint id = tasks.length;\r\n    bool done = false;\r\n    tasks.push(task(id, _description, done));\r\n  }\r\n  function doneTask(uint _id) public {\r\n    tasks[_id].done = true;\r\n  }\r\n  function getTasks() public view returns (task[] memory) {\r\n    return tasks;\r\n  }\r\n  function getLength() public view returns (uint) {\r\n    return tasks.length;\r\n  }\r\n  function getTask(uint _id) public view returns (task memory) {\r\n    return tasks[_id];\r\n  }\r\n}",
  "sourcePath": "C:\\Users\\Juan\\Desktop\\web3\\contracts\\Block.sol",
  "compiler": {
    "name": "solc",
    "version": "0.8.11+commit.d7f03943.Emscripten.clang"
  },
  "schemaVersion": "3.4.4",
  "updatedAt": "2022-01-25T18:52:11.274Z",
  "devdoc": {
    "kind": "dev",
    "methods": {},
    "version": 1
  },
  "userdoc": {
    "kind": "user",
    "methods": {},
    "version": 1
  }
}